:1000000080980020497100003B8902001D710000AA
:100010001D7100001D7100001D7100000000000036
:10002000000000000000000000000000256E00003D
:100030001D71000000000000D16D00001D71000066
:10004000D56E0000357C0100D56E0000D56E000035
:10005000D56E0000D56E0000D56E0000D56E000094
:10006000D56E0000D56E0000D56E0000D56E000084
:10007000D56E0000D56E0000D56E0000D56E000074
:10008000D56E0000D56E0000D56E0000D56E000064
:10009000D56E0000D56E0000D56E0000D56E000054
:1000A000D56E0000D56E0000D56E0000D56E000044
:1000B000D56E0000D56E0000D56E0000D56E000034
:1000C000D56E0000D56E0000D56E0000D56E000024
:0C00D000D56E0000D56E0000D56E00005B
:1000DC00FFFFFFFFFFFFFFFFFFFFFFFFFFFFFFFF24
:1000EC00FFFFFFFFFFFFFFFFFFFFFFFFFFFFFFFF14
:0400FC00FFFFFFFF04
:1001000090F800F06DE9024520F007016FF0000C57
:1001100010F0070491F820F040F049804FF00004FF
:100120006FF00700D1E9002391F840F000F10800DA
:1001300082FA4CF2A4FA8CF283FA4CF3A2FA8CF312
:100140004BBBD1E9022382FA4CF200F10800A4FA79
:100150008CF283FA4CF3A2FA8CF3E3B9D1E90423CD
:1001600082FA4CF200F10800A4FA8CF283FA4CF304
:10017000A2FA8CF37BB9D1E9062301F1200182FABE
:100180004CF200F10800A4FA8CF283FA4CF3A2FAC4
:100190008CF3002BC6D0002A04BF04301A4612BAD2
:1001A000B2FA82F2FDE8024500EBD2007047D1E9D5
:1001B000002304F00305C4F100004FEAC50514F064
:1001C000040F91F840F00CFA05F562EA05021CBF35
:1001D00063EA050362464FF00004A9E7000000004F
:1001E000A2EB0300704700BF02780B78012A28BFFA
:1001F0009A42F5D16DE9044540EA0104CDE9026770
:100200006FF0000C4FEA447212B380EA010414F05C
:10021000070F6AD100F0070420F0070004F003057F
:1002200021F007014FEAC505F0E8042314F0040F9C
:10023000F1E804670CFA05F462EA040266EA0406CF
:100240000AD063EA0403624667EA0407664603E0ED
:10025000F0E80423F1E8046782FA4CF582EA060428
:10026000A4FA8CF46CBB83FA4CF583EA0705A5FA73
:100270008CF595B950E9022351E9026782FA4CF5F1
:1002800082EA0604A4FA8CF483FA4CF583EA0705A3
:10029000A5FA8CF52543DBD09CB92DBAB5FA85F4C7
:1002A00024F0070427FA04F1DDE9026723FA04F3D6
:1002B00003F0FF0001F0FF01FDE80445A0EB0100A1
:1002C000704724BAB4FA84F424F0070426FA04F13F
:1002D000DDE9026722FA04F202F0FF0001F0FF01FB
:1002E000FDE80445A0EB0100704714F0030F3CD17A
:1002F00010F0030428D150F8082B51F8083B82FA7B
:100300004CF582EA0305A5FA8CF55DB950F8042C8A
:1003100051F8043C82FA4CF582EA0305A5FA8CF503
:10032000002DE8D02DBAB5FA85F424F0070423FA9D
:1003300004F122FA04F202F0FF0001F0FF01FDE8EF
:100340000445A0EB010070474FEAC40420F003000D
:1003500050F8082B21F0030151F8083B0CFA04F483
:1003600062EA040263EA0403C9E710F003041AD046
:10037000A1EB040120F00300E40750F8042B06D0A1
:100380000FD28B785FFAA2F4E41A06D12BB1CB78A6
:100390005FFAB2F4E41A00D11BB920465DF8104BA5
:1003A000704701F1040150F8042BCC0721F0030140
:1003B00051F8043B48D824D222F07F4482FA4CF50D
:1003C00094EA1325A5FA8CF50AD165B951F8043BD6
:1003D00084EA0204B4EB036F0ED150F8042BEBE770
:1003E0004FEA132355E035F07F454DD10878FDE8FD
:1003F0000445C0F1000070474FEA126203F0FF03AA
:1004000047E002EA1C4482FA4CF594EA1345A5FA47
:100410008CF50AD165B951F8043B84EA0204B4EBC7
:10042000034F0CD150F8042BEBE74FEA134330E0B5
:1004300015EA1C4528D10B884FEA124229E04FEA01
:10044000124203EA1C4324E002F0FF0482FA4CF556
:1004500094EA1365A5FA8CF50AD165B951F8043B05
:1004600084EA0204B4EB032F09D150F8042BEBE724
:100470004FEA13630DE015F0FF0F05D10B684FEA4B
:10048000122223F07F4304E04FF00000FDE8044512
:10049000704712BA1BBA82FA4CF482EA0304A4FA37
:1004A0008CF5B5FA85F402FA04F203FA04F34FEA84
:1004B0001260FDE80445A0EB1360704700000000E7
:1004C00001F0FF01102A2BDB10F0070F08D010F805
:1004D000013B013A8B422DD010F0070F42B3F6D109
:1004E000F0B441EA012141EA014122F007047FF022
:1004F00000070023F0E80256083C85EA010586EA79
:10050000010685FA47F5A3FA87F586FA47F6A5FAB4
:1005100087F68EB9EED1F0BC01F0FF0102F00702C0
:1005200032B110F8013B013A83EA010313B1F8D16B
:100530000020704701387047002D06BF354603384C
:10054000073815F0010F07D1013015F4807F02BF85
:10055000013015F4C03F0130F0BC0138704700BFD6
:100560004FF0FF0C1CEAD0521EBF1CEAD15392EA96
:100570000C0F93EA0C0F6FD01A4480EA010C400272
:1005800018BF5FEA41211ED04FF0006343EA5010CC
:1005900043EA5111A0FB01310CF00040B1F5000F0E
:1005A0003EBF490041EAD3715B0040EA010062F1BD
:1005B0007F02FD2A1DD8B3F1004F40EBC25008BFA7
:1005C00020F00100704790F0000F0CF0004C08BFC5
:1005D00049024CEA502040EA51207F3AC2BFD2F192
:1005E000FF0340EAC250704740F400004FF00003A0
:1005F000013A5DDC12F1190FDCBF00F000407047DA
:10060000C2F10002410021FA02F1C2F1200200FA17
:1006100002FC5FEA310040F1000053EA4C0308BFDE
:1006200020EADC70704792F0000F00F0004C02BF2F
:10063000400010F4000F013AF9D040EA0C0093F0AA
:10064000000F01F0004C02BF490011F4000F013B04
:10065000F9D041EA0C018FE70CEAD15392EA0C0F72
:1006600018BF93EA0C0F0AD030F0004C18BF31F0DD
:10067000004CD8D180EA010000F00040704790F0B3
:10068000000F17BF90F0004F084691F0000F91F057
:10069000004F14D092EA0C0F01D142020FD193EA1D
:1006A0000C0F03D14B0218BF084608D180EA0100A5
:1006B00000F0004040F0FE4040F40000704740F081
:1006C000FE4040F44000704781F0004102E000BF6E
:1006D00083F0004330B54FEA41044FEA430594EA02
:1006E000050F08BF90EA020F1FBF54EA000C55EA3D
:1006F000020C7FEA645C7FEA655C00F0E2804FEA0E
:100700005454D4EB5555B8BF6D420CDD2C4480EAEF
:10071000020281EA030382EA000083EA010180EA1F
:10072000020281EA0303362D88BF30BD11F0004F6D
:100730004FEA01314FF4801C4CEA113102D04042A3
:1007400061EB410113F0004F4FEA03334CEA1333DE
:1007500002D0524263EB430394EA050F00F0A780F6
:10076000A4F10104D5F1200E0DDB02FA0EFC22FAF1
:1007700005F2801841F1000103FA0EF2801843FAE5
:1007800005F359410EE0A5F120050EF1200E012AD6
:1007900003FA0EFC28BF4CF0020C43FA05F3C01814
:1007A00051EBE37101F0004507D54FF0000EDCF18D
:1007B000000C7EEB00006EEB0101B1F5801F1BD336
:1007C000B1F5001F0CD349085FEA30004FEA3C0C3A
:1007D00004F101044FEA445212F5800F80F09A8030
:1007E000BCF1004F08BF5FEA500C50F1000041EB34
:1007F000045141EA050130BD5FEA4C0C404141EB38
:100800000101013C28BFB1F5801FE9D291F0000F32
:1008100004BF01460020B1FA81F308BF2033A3F1E1
:100820000B03B3F120020CDA0C3208DD02F1140CD8
:10083000C2F10C0201FA0CF021FA02F10CE002F113
:100840001402D8BFC2F1200C01FA02F120FA0CFC0C
:10085000DCBF41EA0C019040E41AA2BF01EB045155
:10086000294330BD6FEA04041F3C1CDA0C340EDC53
:1008700004F11404C4F1200220FA04F001FA02F396
:1008800040EA030021FA04F345EA030130BDC4F154
:100890000C04C4F1200220FA02F001FA04F340EA49
:1008A0000300294630BD21FA04F0294630BD94F0FA
:1008B000000F83F4801306BF81F480110134013DE1
:1008C0004EE77FEA645C18BF7FEA655C29D094EA52
:1008D000050F08BF90EA020F05D054EA000C04BFD0
:1008E0001946104630BD91EA030F1EBF00210020BB
:1008F00030BD5FEA545C05D14000494128BF41F05A
:10090000004130BD14F580043CBF01F5801130BDBD
:1009100001F0004545F0FE4141F470014FF0000048
:1009200030BD7FEA645C1ABF194610467FEA655CF9
:100930001CBF0B46024650EA013406BF52EA03359B
:1009400091EA030F41F4002130BD00BF90F0000F89
:1009500004BF0021704730B54FF4806404F13204C5
:100960004FF000054FF0000150E700BF90F0000F7E
:1009700004BF0021704730B54FF4806404F13204A5
:1009800010F0004548BF40424FF000013EE700BF75
:1009900042004FEAE2014FEA31014FEA02701FBF05
:1009A00012F07F4393F07F4F81F06051704732F037
:1009B0007F4208BF704793F07F4F04BF41F400218E
:1009C000704730B54FF4607401F0004521F00041EC
:1009D0001CE700BF50EA010208BF704730B54FF076
:1009E00000050AE050EA010208BF704730B511F077
:1009F000004502D5404261EB41014FF4806404F1AF
:100A000032045FEA915C3FF4D8AE4FF003025FEA34
:100A1000DC0C18BF03325FEADC0C18BF033202EBB8
:100A2000DC02C2F1200300FA03FC20FA02F001FA12
:100A300003FE40EA0E0021FA02F11444BDE600BFB5
:100A400070B54FF0FF0C4CF4E06C1CEA11541DBF64
:100A50001CEA135594EA0C0F95EA0C0F00F0DEF82F
:100A60002C4481EA030621EA4C5123EA4C5350EA14
:100A7000013518BF52EA033541F4801143F4801365
:100A800038D0A0FB02CE4FF00005E1FB02E506F0F6
:100A90000042E0FB03E54FF00006E1FB03569CF04B
:100AA000000F18BF4EF0010EA4F1FF04B6F5007F51
:100AB00064F5407404D25FEA4E0E6D4146EB0606C3
:100AC00042EAC62141EA55514FEAC52040EA5E504C
:100AD0004FEACE2EB4F1FD0C88BFBCF5E06F1ED8F6
:100AE000BEF1004F08BF5FEA500E50F1000041EB2D
:100AF000045170BD06F0004646EA010140EA0200DA
:100B000081EA0301B4EB5C04C2BFD4EB0C0541EAFB
:100B1000045170BD41F480114FF0000E013C00F310
:100B2000AB8014F1360FDEBF002001F0004170BD34
:100B3000C4F10004203C35DA0C341BDC04F114044D
:100B4000C4F1200500FA05F320FA04F001FA05F2D9
:100B500040EA020001F0004221F0004110EBD370A6
:100B600021FA04F642EB06015EEA430E08BF20EAD2
:100B7000D37070BDC4F10C04C4F1200500FA04F375
:100B800020FA05F001FA04F240EA020001F0004107
:100B900010EBD37041F100015EEA430E08BF20EA7A
:100BA000D37070BDC4F1200500FA05F24EEA020EC2
:100BB00020FA04F301FA05F243EA020321FA04F0F1
:100BC00001F0004121FA04F220EA020000EBD370A8
:100BD0005EEA430E08BF20EAD37070BD94F0000FA8
:100BE0000FD101F00046400041EB010111F4801FDC
:100BF00008BF013CF7D041EA060195F0000F18BF8D
:100C0000704703F00046520043EB030313F4801FC8
:100C100008BF013DF7D043EA0603704794EA0C0F82
:100C20000CEA135518BF95EA0C0F0CD050EA410698
:100C300018BF52EA4306D1D181EA030101F0004115
:100C40004FF0000070BD50EA410606BF104619463D
:100C500052EA430619D094EA0C0F02D150EA013649
:100C600013D195EA0C0F05D152EA03361CBF10468A
:100C700019460AD181EA030101F0004141F0FE4129
:100C800041F470014FF0000070BD41F0FE4141F4AD
:100C9000780170BD70B54FF0FF0C4CF4E06C1CEAAD
:100CA00011541DBF1CEA135594EA0C0F95EA0C0F62
:100CB00000F0A7F8A4EB050481EA030E52EA03351D
:100CC0004FEA013100F088804FEA03334FF080553E
:100CD00045EA131343EA12634FEA022245EA11156B
:100CE00045EA10654FEA00260EF000419D4208BF1C
:100CF000964244F1FD0404F5407402D25B084FEAC9
:100D00003202B61A65EB03055B084FEA32024FF474
:100D100080104FF4002CB6EB020E75EB030E22BFD1
:100D2000B61A754640EA0C005B084FEA3202B6EB91
:100D3000020E75EB030E22BFB61A754640EA5C0040
:100D40005B084FEA3202B6EB020E75EB030E22BFD0
:100D5000B61A754640EA9C005B084FEA3202B6EBD1
:100D6000020E75EB030E22BFB61A754640EADC0090
:100D700055EA060E18D04FEA051545EA16754FEAF2
:100D800006164FEAC30343EA52734FEAC2025FEA10
:100D90001C1CC0D111F4801F0BD141EA00014FF09F
:100DA00000004FF0004CB6E711F4801F04BF014370
:100DB0000020B4F1FD0C88BFBCF5E06F3FF6AFAE8C
:100DC000B5EB030C04BFB6EB020C5FEA500C50F11C
:100DD000000041EB045170BD0EF0004E4EEA11319F
:100DE00014EB5C04C2BFD4EB0C0541EA045170BDA6
:100DF00041F480114FF0000E013C90E645EA060EEA
:100E00008DE60CEA135594EA0C0F08BF95EA0C0F17
:100E10003FF43BAF94EA0C0F0AD150EA01347FF45F
:100E200034AF95EA0C0F7FF425AF104619462CE736
:100E300095EA0C0F06D152EA03353FF4FDAE104699
:100E4000194622E750EA410618BF52EA43067FF4EA
:100E5000C5AE50EA41047FF40DAF52EA43057FF47A
:100E6000EBAE12E74FF0FF3C06E000BF4FF0010C85
:100E700002E000BF4FF0010C4DF804CD4FEA410CE9
:100E80007FEA6C5C4FEA430C18BF7FEA6C5C1BD0B6
:100E900001B050EA410C0CBF52EA430C91EA030F37
:100EA00002BF90EA020F0020704710F1000F91EA94
:100EB000030F58BF994208BF90422CBFD8176FEA62
:100EC000E37040F0010070474FEA410C7FEA6C5C30
:100ED00002D150EA013C07D14FEA430C7FEA6C5C37
:100EE000D6D152EA033CD3D05DF8040B704700BF63
:100EF0008446104662468C461946634600E000BFB1
:100F000001B5FFF7B7FF002848BF10F1000F01BD82
:100F10004DF808EDFFF7F4FF0CBF012000205DF84D
:100F200008FB00BF4DF808EDFFF7EAFF34BF0120D2
:100F300000205DF808FB00BF4DF808EDFFF7E0FF6B
:100F400094BF012000205DF808FB00BF4DF808EDBC
:100F5000FFF7CEFF94BF012000205DF808FB00BF23
:100F60004DF808EDFFF7C4FF34BF012000205DF805
:100F700008FB00BF4A0011D212F5001211D20DD5A4
:100F80006FF47873B3EB62520ED44FEAC12343F08F
:100F9000004343EA505323FA02F070474FF0000039
:100FA000704750EA013002D14FF0FF3070474FF0E8
:100FB000000070474FEA4102B2F1E04324BFB3F5AD
:100FC000001CDCF1FE5C0DD901F0004C4FEAC002C0
:100FD0004CEA5070B2F1004F40EB830008BF20F0A4
:100FE0000100704711F0804F21D113F13872BCBF5E
:100FF00001F00040704741F480114FEA5252C2F1B3
:101000001802C2F1200C10FA0CF320FA02F018BFFB
:1010100040F001004FEAC1234FEAD32303FA0CFC4E
:1010200040EA0C0023FA02F34FEA4303CCE77FEADD
:10103000625307D150EA01331EBF4FF0FE4040F427
:101040004000704701F0004040F0FE4040F40000D6
:10105000704700BF80F0004002E000BF81F0004117
:1010600042001FBF5FEA410392EA030F7FEA226C4E
:101070007FEA236C6AD04FEA1262D2EB1363C1BFDE
:10108000D218414048404140B8BF5B42192B88BF4D
:10109000704710F0004F40F4000020F07F4018BF70
:1010A000404211F0004F41F4000121F07F4118BF90
:1010B000494292EA030F3FD0A2F1010241FA03FC38
:1010C00010EB0C00C3F1200301FA03F100F0004320
:1010D00002D5494260EB4000B0F5000F13D3B0F1E8
:1010E000807F06D340084FEA310102F10102FE2A57
:1010F00051D2B1F1004F40EBC25008BF20F00100C7
:1011000040EA03007047490040EB0000013A28BF65
:10111000B0F5000FEDD2B0FA80FCACF1080CB2EBE8
:101120000C0200FA0CF0AABF00EBC2505242184366
:10113000BCBFD0401843704792F0000F81F400010B
:1011400006BF80F400000132013BB5E74FEA4103DE
:101150007FEA226C18BF7FEA236C21D092EA030F4A
:1011600004D092F0000F08BF0846704790EA010FC4
:101170001CBF0020704712F07F4F04D1400028BFF1
:1011800040F00040704712F100723CBF00F50000D3
:10119000704700F0004343F0FE4040F40000704709
:1011A0007FEA226216BF08467FEA236301464202B5
:1011B00006BF5FEA412390EA010F40F480007047C8
:1011C0004FF0000304E000BF10F0004348BF40426E
:1011D0005FEA000C08BF704743F0964301464FF0AA
:1011E00000001CE050EA010208BF70474FF0000306
:1011F0000AE000BF50EA010208BF704711F0004347
:1012000002D5404261EB41015FEA010C02BF844616
:101210000146002043F0B64308BFA3F18053A3F575
:101220000003BCFA8CF2083AA3EBC25310DB01FABC
:1012300002FC634400FA02FCC2F12002BCF1004F40
:1012400020FA02F243EB020008BF20F001007047D1
:1012500002F1200201FA02FCC2F1200250EA4C0025
:1012600021FA02F243EB020008BF20EADC7070476B
:101270004FEA4002B2F1FE4F0FD34FF09E03B3EBA3
:1012800012620DD94FEA002343F0004310F0004FE3
:1012900023FA02F018BF404270474FF00000704739
:1012A00012F1610F01D1420205D110F0004008BFD8
:1012B0006FF0004070474FF0000070477BB972B983
:1012C0000029BEBF00204FF0004106E008BF002803
:1012D0001CBF6FF000414FF0FF3000F075B8ADF16A
:1012E000080C6DE904CE002909DB002B1ADB00F0A5
:1012F00045F9DDF804E0DDE9022304B0704740421F
:1013000061EB4101002B1BDB00F038F9DDF804E054
:10131000DDE9022304B0404261EB4101524263EB3C
:1013200043037047524263EB430300F027F9DDF8B3
:1013300004E0DDE9022304B0404261EB4101704763
:10134000524263EB430300F019F9DDF804E0DDE9F4
:10135000022304B0524263EB4303704753B94AB9C6
:10136000002908BF00281CBF4FF0FF314FF0FF30AD
:1013700000F02AB8ADF1080C6DE904CE00F0FEF8DB
:10138000DDF804E0DDE9022304B07047D0B50C4B72
:10139000002206460F46FFF753FBFFF7EBFD04461E
:1013A000FFF7D4FA074B0022FFF74AFB02460B4631
:1013B00030463946FFF78CF9FFF7DCFD2146D0BDFA
:1013C0000000F03D0000F041704700BF844641EA54
:1013D000000313F003036DD1403A41D351F8043BAD
:1013E00040F8043B51F8043B40F8043B51F8043BFF
:1013F00040F8043B51F8043B40F8043B51F8043BEF
:1014000040F8043B51F8043B40F8043B51F8043BDE
:1014100040F8043B51F8043B40F8043B51F8043BCE
:1014200040F8043B51F8043B40F8043B51F8043BBE
:1014300040F8043B51F8043B40F8043B51F8043BAE
:1014400040F8043B51F8043B40F8043B51F8043B9E
:1014500040F8043B51F8043B40F8043B403ABDD20D
:10146000303211D351F8043B40F8043B51F8043BAF
:1014700040F8043B51F8043B40F8043B51F8043B6E
:1014800040F8043B103AEDD20C3205D351F8043B3E
:1014900040F8043B043AF9D2043208D0D2071CBF0A
:1014A00011F8013B00F8013B01D30B880380604633
:1014B000704700BF082A13D38B078DD010F00303A9
:1014C0008AD0C3F10403D21ADB071CBF11F8013B19
:1014D00000F8013B80D331F8023B20F8023B7BE768
:1014E000043AD9D3013A11F8013B00F8013BF9D293
:1014F0000B7803704B7843708B788370604670472D
:101500004FEA410C7FEA6C5C02D150EA013C0AD1FF
:101510004FEA430C7FEA6C5C02D152EA033C02D1F1
:101520004FF0000070474FF0010070474FEA410252
:1015300012F5001215D211D56FF47873B3EB625225
:1015400012D94FEAC12343F0004343EA505311F04C
:10155000004F23FA02F018BF404270474FF00000DE
:10156000704750EA013005D111F0004008BF6FF01C
:10157000004070474FF00000704700BF2DE9F04F6A
:1015800007468C460846099E15463C461946002BE0
:1015900040F0C6808242B2FA82F746D94FB1C7F115
:1015A000200E24FA0EFE00FA07F3BD404EEA030CAB
:1015B000BC404FEA15481FFA85FEBCFBF8F9220C27
:1015C00008FB19C309FB0EFA42EA03439A4528D9DE
:1015D000EB1809F1FF3004D29A4502D9A9F10200B3
:1015E0002B44A3EB0A03A4B2B3FBF8F208FB1233BB
:1015F00002FB0EFE44EA0344A64514D92C1902F15D
:10160000FF3303D2A64501D9931E2C44A4EB0E044C
:1016100043EA00401EB1FC40002334607360BDE823
:10162000F08F4846DDE71346F0E702B9FFDE87BBDF
:10163000831A01214FEA154EAAB2B3FBFEFC200C1F
:101640000EFB1C330CFB02F840EA0343984563D9B8
:10165000EB180CF1FF3004D2984502D9ACF102002E
:101660002B44A3EB0803A4B2B3FBFEFC0EFB1C331C
:101670000CFB02F244EA0344A2424FD92C190CF1AC
:10168000FF3304D2A24202D9ACF102032C44A41AC3
:10169000BEE7C7F1200C20FA0CF800FA07F324FA91
:1016A0000CFCBD404CEA03024FEA154EABB2B8FB4E
:1016B000FEFC110C0EFB1C800CFB03F941EA004000
:1016C000814504FA07F423D928180CF1FF3104D21C
:1016D000814502D9ACF102012844A0EB090092B285
:1016E000B0FBFEFC0EFB1C000CFB03F842EA0043BF
:1016F00098450FD9EB180CF1FF3204D2984502D966
:10170000ACF102022B44A3EB080342EA014191E74A
:101710006146E2E76246F6E76046A2E76346B6E75F
:10172000834205D90EB1C6E900700021084676E76C
:10173000B3FA83F181B9834201D3BA420AD8BC1A01
:1017400060EB030301209C46002E68D0C6E9004CE4
:10175000002164E70846F7E7C1F1200C8B4022FA2C
:101760000CF41C4302FA01F500FA01F327FA0CF21B
:1017700020FA0CFB4FEA14491343BBFBF9F81FFA9C
:1017800084FE09FB18BB1A0C08FB0EFA42EA0B4256
:10179000924507FA01F73ED9A21808F1FF3004D2AA
:1017A000924502D9A8F102002244A2EB0A029BB2A0
:1017B000B2FBF9F809FB182208FB0EFE43EA0242CD
:1017C00096452AD9A21808F1FF3304D2964502D9CA
:1017D000A8F10203224443EA0040A0FB0593A2EBD8
:1017E0000E029A42CE46984602D306D14F4504D205
:1017F000B9EB050E63EB0408013886B1B7EB0E03B5
:1018000062EB080707FA0CFCCB404CEA0303CF401D
:10181000C6E900379CE74046C7E74346DBE7314669
:10182000FDE600000000000008B50D4B1888FFF72A
:101830009DF809A3D3E90023FFF702F9FFF79AFB0C
:10184000084B094A9B78C3EBC3039BB280B2834227
:1018500038BF0346138008BD666666666666F63F57
:10186000D8400020021300208C110020000000004E
:101870002DE9F74F03F0F2FD0FF2E40BDBE900ABCB
:1018800003F0A4FB38A7D7E9006703F043FD0FF28C
:10189000E009D9E9008903F093F9394C206883689D
:1018A00038495B6898472368374C9B6822681B89D6
:1018B00001A953430020019319F0C6F910B9019B07
:1018C0001B1323602068FFF751F8044602460B46BD
:1018D0000D4650465946FEF7FBFE22462B46FFF7C3
:1018E000D9F932463B46FFF7ABF842464B461DF06E
:1018F000E1F821A3D3E90023FFF7A2F81DF090F847
:10190000FFF738FB214C208003F03CF9204B1A787C
:101910006AB1204A21881288914208D900221A709F
:101920001D4A92F8643943F0010382F864391B4977
:101930000B7803F00F02022A0AD18A782088C2EBC2
:10194000C2029042C2BF23F00F0343F003030B70A7
:101950004FF47A7024F019FF9FE700BFAFF30080C7
:101960000000000000C8A940000000000088C3403B
:101970008FC2F5285C8FF6BF00000000A3E1814113
:101980003C21002008DA020040210020D84000203D
:10199000594100208C110020542100200213002006
:1019A00073B5424DD5F85431996811F0010121D138
:1019B00001AA40F6034006F085FA0446002872D1D9
:1019C000019B9B681B7893B9BFF35B8F2B4653F841
:1019D000CC2FBFF35B8F02F00502BFF35B8F53E8A0
:1019E000001F43E800200028F9D1BFF35B8F019866
:1019F00019F0F8F801AA002141F2030006F062FA9A
:101A0000044600284FD1019B294E9A68D2F8010064
:101A1000D2F8051003C6184619F0E4F8214601AAC9
:101A200041F2010006F04EFA044600283BD101982D
:101A300083685A7885F86820D9789A7842EA012232
:101A4000A5F86A201A7985F86920197ADA7942EAC4
:101A50000122A5F86C205A799B7942EA0323A5F864
:101A60006E3019F0BFF8214601AA41F2020006F0DB
:101A700029FA0446B8B9019B9A68531C4132186888
:101A80005968344603C4083393422646F7D10948BF
:101A900027F02EF8019819F0A5F895F874305A0639
:101AA0000AD46FF01204204602B070BD0800002076
:101AB000780000208000002001AA002142F20300EB
:101AC00006F000FA04460028EDD1019BC64E9A6844
:101AD000D2F80100D2F8051003C6184619F082F8B2
:101AE000214601AA42F2020006F0ECF90446002861
:101AF000D9D1019B9B68B3F80120A5F8FC2091B2D5
:101B000029B1DA78114606F128002BF041F8019846
:101B100019F068F895F8746016F0200600F0388126
:101B200095F894301B0712D501AA002142F21C003F
:101B300006F0C8F904460028B5D101988368D3F8A7
:101B40000120D3F80530C5E9362319F04BF895F894
:101B5000D0309E0623D50DF10201684627F04FFADA
:101B6000044600289FD1042142F2240006F04EF9D9
:101B70000646002800F01381042108302AF022F8DC
:101B8000BDF800300380BDF8023043802246314664
:101B900042F2240006F096F90446002883D195F815
:101BA000D0305C062CD5022142F22E0006F02EF930
:101BB0000446002800F0F380022108302AF002F8E1
:101BC0006FF07B030370032343702146002242F22F
:101BD0002E0006F077F9044600287FF464AF014632
:101BE00001AA42F22A0006F06DF9044600287FF4AB
:101BF0005AAF019883685B7885F8183118F0F2FFC6
:101C0000082142F2010006F001F90446002800F024
:101C1000C6800821084429F0D5FF95F8D01011F0AE
:101C2000400F024640F2022308BF032388074CBF3F
:101C300043F02C0043F00C008B0695F8D13048BFE0
:101C400040F0400013F0090F95F89A3018BF40F4A7
:101C5000006003F00603CE0748BF40F01000062BDB
:101C600008BF40F4C070002127F0A4F821460022EC
:101C700042F2010006F026F9044600287FF413AF73
:101C800095F87430B5F8FC10980600F19D80D9B92C
:101C900001AA41F2050006F015F9044600287FF478
:101CA00002AFB5F8FC3063B9019B9B685A7899780C
:101CB00042EA0122A5F8FC209A884C4811462AF0F5
:101CC00067FF019818F08EFF082140F6014006F0EA
:101CD0009DF80446002862D00821084429F072FFCC
:101CE00095F8D030D907024674D53DA1D1E900015D
:101CF00027F060F82146002240F6014006F0E2F8A5
:101D0000044600287FF4CFAE014601AA4FF60140F9
:101D100006F0D8F8044620BB019818F063FF21466E
:101D200001AA4FF6024006F0CDF80446C8B9019862
:101D30008368B3F80130A5F8B93018F053FF95F86F
:101D4000B9305B070DD501AA21464FF6034006F0D6
:101D5000B9F830B9019883685B7885F8B83018F025
:101D600041FF07F097F8044600287FF49CAE08F086
:101D7000E5F8044600287FF496AEEB79002B3FF49B
:101D800092AE04211A4826F088FF06F0B9FB8AE6D5
:101D9000022140F66D4006F039F8044610B96FF0A4
:101DA000680480E60221083029F00CFF012303704B
:101DB00046702146324640F66D4006F083F80446F0
:101DC00000283FF4ADAE6EE600297FF47DAF6FF0E2
:101DD000040468E607484FF0005189E7AFF300803C
:101DE0009088000200800020D80000200801002018
:101DF000D4000020108800022DE9F041D0E90B3515
:101E0000866A5C193034A6428846174618D81C4D9D
:101E1000A3FB050118A3D3E90023FFF79FFAA41B36
:101E200020F07F40C8F8000013A3D3E90023A4FBEF
:101E30000501FFF793FA20F07F403860BDE8F0819C
:101E40000F4C0DA3D3E90023A6FB0401FFF786FA8C
:101E500005F1300120F07F40C8F8000006A3D3E967
:101E60000023A1FB0401FFF779FA20F07F403860DE
:101E7000BDE8F081AFF300808D49FD1A0700000036
:101E800000CA9A3B000000002DE9F04FAB4C8FB028
:101E900094F86A20002800F0398112F0010740F020
:101EA000B78194F82500FF2300F0030084F8263062
:101EB00015F05CFB94F86A0041072DD494F82920B2
:101EC00094F8353004EB820204EB8303D2F82C80C3
:101ED000D3F83890B8F1000F11D0984841460FF070
:101EE0001FFD98F800305A0605D506210BF078F84A
:101EF000002800F0C981914849460FF011FD98F87B
:101F0000003013F00E0F40F0EE80236A9BB10C27D7
:101F100038460FB0BDE8F08F3A4604F16B01C0F3CC
:101F2000C00015F089FCFF2884F82600C6D038468A
:101F300015F036FBC2E70EF09BFB8246002800F04E
:101F4000AD810EF0A1FB8346002800F0AC8110F0BB
:101F5000B9FC0546002800F0A381406F4FF6FF73DF
:101F60002B8505F11C03002800F0948105F168021F
:101F700005F164010B930BF03FF8B5F86020704B4E
:101F800022F4EF6222F0070242F4887242F001026A
:101F9000A5F8602095F8392002F03F0262F07F0238
:101FA00085F8392095F87A2022F0070285F87A2002
:101FB00095F83C2022F0070285F83C2095F8D820BF
:101FC00022F0070285F8D8204FF01B120026C5E941
:101FD00016230622A5F8C020C5E912666E67A5F88B
:101FE0007860EE852E6385F83B602E65A5F8C460A9
:101FF000A5F8C860A5F8D060A5F8CC60A5F8E460A5
:1020000085F8E660C5F80861A5F80C61A5F82061BF
:102010000DF010FE95F83A21A5F8386122F0030280
:1020200085F83A2195F87A20A5F8406122F0180247
:1020300085F87A2095F8662185F8436122F0070239
:1020400085F8662195F88621C5F844A166F3451206
:1020500085F8862195F8AE21A5F8646166F3C30280
:10206000C5E94A0100210020C5E94C0185F8AE21EF
:1020700085F8D960A5F88461C5F8E060A5F8AC6181
:10208000A5F8B86110F064FFA5F8D20010F066FF63
:10209000D5F8BC112B4AA5F8D4000A40C5F8BC21DC
:1020A00010F062FF95F8C02160F3020285F8C021AC
:1020B00010F060FF0B9B236295F8C031C5F8C46136
:1020C00060F3C503C4E918ABC5E97466C5E9726677
:1020D000C5E905662E70ED6185F8C03116F0F8FA95
:1020E000002840F0D38094F824300121C3F3420348
:1020F0000DF133008DF833300BF0F8F820BB236A74
:10210000002B3FF404AF0FF0D7F800E712F00107FF
:102110003FF4FEAE236A5BB193F8202042F0020246
:1021200083F82020236A93F82030D8073FF5EFAEDC
:102130000FB0BDE8F04F0FF001B900BFE834002048
:10214000480148010000FFF699F801100246404698
:102150000FF098F95849B4F8689031230025A3602E
:10216000A0FB010152A3D3E90023C4E90555257062
:102170006560E560FFF7F2F820610CF0CFF90646E4
:10218000B9F1000F08D198F8005005F00F05A5F13E
:102190000105B5FA85F56D0994F82400236965F306
:1021A000000010F0010584F8240036D00020434AD6
:1021B000DFF80C91049302250DF134080193059288
:1021C0000321CDE90200069433460090CDF820802B
:1021D000CDF81C902A460D950CF0D4F841460EF02F
:1021E000FDFA00288BD1374A05924AF2D832009284
:1021F000CDE90300CDE90100CDF81C90CDF8208099
:1022000006943346012203210D950CF0BBF82EE015
:10221000002738460FB0BDE8F08F2B4A2B480493B7
:1022200003F24713A9FB0001069402951360912362
:1022300003FB0911224B0793204B05934FF6FF73C5
:1022400009924FF0020903930DF1340818A3D3E962
:102250000023CDF83490CDF82080FFF77FF8334687
:10226000CDE900504A46284603210CF035F8414696
:102270000EF0B4FA00287FF442AF94F86A3043F0CD
:10228000010384F86A3043E6122741E60FF014F8A0
:1022900003273DE605F16C00686767E6072737E628
:1022A00058460EF0F7F950460EF0E8F907272FE6EA
:1022B0008D49FD1A0700000000CA9A3BF91401007D
:1022C000D5FC0000491001005C350020002AE7849D
:1022D00070B590F824308AB0C3F342030D4604462B
:1022E00001210DF1230016468DF823300AF0FEFF80
:1022F0007178024628460FF0C5F81D491AA3D3E9A4
:102300000023A0FB0101FFF729F823699842054645
:1023100020D21B1A00220192164A0293164BA21ACF
:10232000A3FB02320221920900230A4409AE09915B
:1023300012490591CDE903330321D2B206960093E9
:1023400018460CF091F831460EF048FA48B925616C
:102350000AB070BD02D9C21A0023DCE700200AB01F
:1023600070BD0C200AB070BD8D49FD1A0700000039
:1023700000CA9A3BE834002009CB3D8DD5FC000013
:102380002DE9F04FC38D468E1E4490F80E310E4459
:1023900013F007038BB00446B6B240F0A581B0F845
:1023A000E8909046A6EB09021FFA82FB120400F1A6
:1023B000098290F93920002A0F46C0F2358194F83D
:1023C000E43084F8E53094F8842194F8853194F869
:1023D0000C1184F80D11934206D094F8863103F065
:1023E0000F03062B00F04F82B14BD4F808511A6846
:1023F000944204BF00221A60002D00F04481286836
:10240000002800F04081B4F81031B4F82AC04268C6
:10241000C4F808216345B4F81221B4F8141100F08F
:102420001781B4F828C0EB8318232B710023A5F87B
:1024300006C02A8469842B7729460EF031F90EF004
:1024400039F9A368002BC0F2F780608DB4F8105101
:1024500010FB0BF080B2B0FBF5F115FB01F39BB262
:1024600098421FFA81FAC0F0CE8005FB110140F2BC
:10247000E243904889B203FB01F1A1FB00018AA36A
:10248000D3E90023FEF76AFFA8EB0008E18D94F979
:102490003930A9EB0609D1440F444F44E785002B9E
:1024A00040F2E24707FB05F6C0F29C81824A83496D
:1024B000834840F6844324F02EFA404080F311888C
:1024C0004FF0030002DF0027B3467E4AB4F8143110
:1024D0007D48B4F81211A1853244B2FBF6F2A4F89B
:1024E000C62042F2107202FB03633044013BB0FB92
:1024F000F6F0B3FBF6F6B4F81031638583B2881DAD
:102500008342A4F8C260A4F8CE3002DD5B1A063B19
:102510009BB2A4F8CA3094F80E311B0744BF0023C5
:10252000A4F8C4300221012018F094F800220221FE
:10253000814601200AF0B0FD64494FF4F072204654
:102540000AF03AFD00F1030A5FFA8AFA604B009440
:102550005246012100200BF09FFF30F002030CD007
:10256000554A5C49564840F6B34324F0D4F94040FC
:1025700080F311884FF0030002DF4E4EABFB066B79
:1025800049A3D3E9002330465946FEF7E7FE0894F5
:1025900020F07F450694504823690493A5FB000171
:1025A000072303FB05114D4B07934D4B0593301A41
:1025B0004FF6FE736BEB010103934FF47A72002325
:1025C000FEF7CCFE4346CDE901500097524601216B
:1025D00000200BF0D7FE30F002030CD0364A3D4904
:1025E000374840F6CD4324F096F9404080F31188F7
:1025F0004FF0030002DFB9F1000F40F03E810020F0
:102600000BB0BDE8F08F1B1A2A4940F2E24003FBF1
:1026100000F0A0FB010124A3D3E90023FEF79EFEF6
:1026200020F07F40804431E790F8D920002A3FF421
:10263000C6AE80F8D930C6E6E168626823F0004390
:1026400091422CBF88449044A360A8EB0308FCE6A9
:10265000B4F82CC094457FF4E4AE40F2E24C0CFB9D
:1026600003FE42F2107C0CFB01EC0CF1FF3CBCFBC6
:10267000FEFCB4F8C2E01FFA8CFCE6457FF4D1AE54
:1026800001232B71D8E60C4A16490D4840F6084341
:1026900024F041F9404080F311884FF0030002DF3D
:1026A0002868B0E6AFF300808D49FD1A07000000EE
:1026B0007C35002000CA9A3B08E402000CE00200CE
:1026C000ACDF0200FF5962027FC3C901401D002038
:1026D000891F0100F0E402008D49FD1A311F01003D
:1026E00059690100DCE4020001200DF0E9FF074612
:1026F000002800F0D68084480AF02CFC054600280B
:1027000000F0CF80814B1A68002A00F0C2800DF0E3
:10271000F5FF3B68D4F808215A60C4F808712F1DF2
:1027200000F0C2800C236B712B797948D4F8C41166
:1027300003F01C0343F003032B71A38D1E44D4F854
:1027400018310022A0FB030394F80E01AA71EA716C
:102750009B0A62F3020094F81C21A5F80930B4F832
:102760001031A5F80B300636B4F81231A5F80D304B
:10277000B6B2B4F81431A5F80F302A72D4F8C831C3
:1027800084F80E01A4F8E860A5F81160F9B194F896
:10279000662196071BD494F8BF21D00717D4D4F82C
:1027A000D021914200F08E80002B00F09880D4F868
:1027B000CC110B682B600D602968C4F8CC5109B9A5
:1027C000C4F8D4516FF076000BB0BDE8F08F002B49
:1027D00061D0D4F8CC311A682A601D602968C4F829
:1027E000CC51ECE7226CA36C02FB1B33A36415F005
:1027F000C1FF054694F8D800C0F3C20015F0BCFF35
:10280000054406FB05F5434B94F81C2105F574259A
:1028100005F23F25A3FB0535AD0C07FB02F2A36CC7
:10282000226505FB0AF072080344963A934228BFDA
:1028300013462564A6EB050B374DC4E9112300238D
:10284000C4F8E030A0FB05012DA3D3E90023FEF777
:1028500085FD2F49A8EB0008D4F81801A1FB003032
:10286000800A07FB00F026A3D3E90023A0FB0501A3
:10287000FEF774FD20F07F4727E601220221104673
:102880000AF00AFCBBE6002384F88521A4F8C830CE
:10289000AAE51C603BE72960C4E97155C4F8CC5136
:1028A0008DE76FF06800ABE61C4A1D491D4840F6F5
:1028B0000B0324F030F8404080F311884FF0030000
:1028C00002DF2FE70A68C4F8D021002B7FF46FAF36
:1028D0000B682B600D602968C4E972556FE70B79AE
:1028E00003F00303032B02D0C4F8C81161E7CB79CE
:1028F000032BEDD00A2BF7D1EAE700BFAFF300803E
:102900008D49FD1A07000000103600207C3500209C
:102910005917B7D183DE1B4300CA9A3B08E4020073
:10292000D4E40200ACDF02002DE9F04F0B6891F80F
:1029300011901B68D2F800A097B005460B93037F57
:10294000D0F81E001490C3F380138DF84730B9F10E
:10295000FF0F6B8CADF854300C4617460DF1500844
:102960004BD198E803001290ADF84C102B46EA8D3D
:1029700053F82EBB9B78BB723A81D5F82A307B6026
:10298000D5F83A30BB6107F1180095F83E30037175
:1029900005210AF0ABFC7B7F95F83F2000F03F005B
:1029A00060F305037B77C2F30403BB77AE8EFE8131
:1029B0000128B6B202F01F0305D91B3303F01F0331
:1029C0000B2B00D82EBB0B9BEC6800225A6197F8AA
:1029D0002030012662F3000387F82030584629464C
:1029E0002E710DF05DFE2068267121460DF058FE17
:1029F0000DF060FE17B0BDE8F08F12AA0DF147018F
:102A0000484614F0C5FA9DF8473002338DF8473038
:102A1000ACE723680021596095F8371095F83630F7
:102A200043EA01233B829AF8D830520962F3C50386
:102A30006A8E0D928AF8D83040F2E24202FB06F626
:102A400015F098FE0C909AF8D800C0F3C20015F06B
:102A500093FE0C9BC249034406FB03F303F5742366
:102A600003F23F23A1FB03239B0C7B6295F83130DB
:102A7000398A40F2E24203FB02F27308963BBA63E2
:102A8000BB622B8FB74AADF83A3018463244B64B8A
:102A9000B2FBF6F2AAF8C62082B242F2107000FB36
:102AA00002623344013A881DB2FBF6F2B3FBF6F33F
:102AB000AAF8C2209AB28242AAF8CE2002DD521AA7
:102AC000063A92B2AAF8CA207B68CAF8DC302B46D4
:102AD00013F81C2FC2F34011DA070F910C9100F18B
:102AE00017814FF48073AB830B9B93F8260014F08F
:102AF000C5FF05F12B03002800F0ED806A6AC5F8D8
:102B00002B202A8D9A80B9F1FF0F00F0E880B8F8E9
:102B100004301498A5F82930C5F825009DF84730F1
:102B2000AB771298BDF84C30C5F81F00A5F82330DC
:102B30009AF8D830FA896A863A8AAA86C3F3C20319
:102B4000BDF83A2085F83830EA8650460FF0C6FEC8
:102B50002946B881E880656858460DF0A1FDBB891B
:102B6000EB801B232B710C9BD5F80080002B40F0D1
:102B7000BC809DF83C302B77294640460DF090FDF7
:102B80000DF098FD97F84500B7F84050B7F842802F
:102B9000012100F0070015F0FDFBA84408F5E178DD
:102BA000834608EB000171484FF000093123CAF851
:102BB0000830A1FB000168A3D3E90023CAF8049000
:102BC000CAF80C90FEF7CAFB7B6A0D9AE56820F004
:102BD0007F40F61A40F2E24303FB025502214A46C7
:102BE000CAF8100001200AF057FA0B9F38460EF081
:102BF00053FE821C5E4B0097D2B2484601210BF077
:102C00004BFC05F2B2450128A5EB0B0500F08D80C9
:102C10000B9B93F82430DB0772D450460FF05EFE16
:102C2000DFF84891A6FB09864BA3D3E9002383462E
:102C300031464046FEF792FBA368CDF818A00BF191
:102C40000304A3F13A0B4B4B07934B4B059340F214
:102C5000C7130893DAF81030049320F07F474748F1
:102C60000023A7FB000103930723B8EB000003FB3D
:102C7000071166EB01014FF47A720023FEF76EFB39
:102C800035A3D3E90023CDE90170A5FB0901FEF7C7
:102C900065FBE4B220F07F4000905B4622460121B4
:102CA00000200BF06FFB30F002030CD0344A3549A2
:102CB00035484FF4E47323F02EFE404080F3118832
:102CC0004FF0030002DF0122022110460AF0E4F96E
:102CD00017B0BDE8F08FC5F82B00988013E70022ED
:102CE000C5F82520A5F8292018E77B7F43F040038D
:102CF0007B77381D13F056FF0123F8832B773BE7D2
:102D0000002301220093184611460BF0C5FB84E70F
:102D10001B4A1E491C48F02323F0FDFD404080F370
:102D200011884FF0030002DFDBE60DF095FD0B9BF1
:102D300083423FF46DAF124A1549134840F29E2377
:102D400023F0E9FD404080F311884FF0030002DFDB
:102D50005EE700BFAFF300808D49FD1A0700000059
:102D600083DE1B43FF5962027FC3C90100CA9A3B3D
:102D70001D690100ED680100596901008D49FD1AC6
:102D800004E60200F0E40200ACDF020094E002007E
:102D900060E60200000000002DE9F04F8FB0DFF880
:102DA000D8800A900DF137010DF136000DF0F0FCDE
:102DB000324F9DF836A09DF837B00BF0AFFBD8F836
:102DC0000040A4FB07542AA3D3E9002381462146EF
:102DD0002846FEF7C3FA0A9B0B90D8F80400069326
:102DE000274B0593002622A3D3E90023A0FB07016C
:102DF000CDE90766FEF7B2FA0B9B20F07F40CDE9E4
:102E00000360204823F07F47A7FB00010723281A0F
:102E100003FB071164EB01014FF47A720023FEF704
:102E20009DFA0096CDE901704B465A460321504663
:102E30000BF0A8FA30F0020416D1134A134800230D
:102E40001AF0E8FD68B19DF837209DF8360000942F
:102E5000234603210BF020FB6FF073000FB0BDE899
:102E6000F08FD8F80C00F9E76FF08B00F6E700BFA1
:102E70008D49FD1A07000000CC3E002000CA9A3B95
:102E8000EDBB01008D49FD1A447B0B00DC3E0020A8
:102E900038B50F4D04460BF041FBA9680BF040FB21
:102EA0006968B0FBF4F404440A4807A3D3E900239B
:102EB000A1FB0001FEF752FA20F07F40844294BF4C
:102EC0000020012038BD00BF8D49FD1A0700000019
:102ED000CC3E002000CA9A3B2DE9F04F994690461F
:102EE00029F000451E46134655EA080293B035D036
:102EF0006B4A009021F00044944283468A460F4674
:102F000025DC34D0954222DC654A95421DD0002F45
:102F100036DB00220292002B4CD1614B9D4200F027
:102F20009780604B9D4200F0A580B6F1804F00F085
:102F3000AF845D4B9E423DD1002F3BDB584651464E
:102F400013B0BDE8F04F1BF075BE002BDFD0009B27
:102F500004F1404404F5801423430BD1514C002369
:102F6000CDE90034DDE9000113B0BDE8F08F08B908
:102F7000A542C9DD4D4813B0BDE8F04F1BF02ABF94
:102F80004B4A95427EDCA2F1547295420EDD2A1521
:102F9000A2F2FF32142A40F38584C2F1340223FAEC
:102FA00002F101FA02F29A4200F0D2840022029267
:102FB000002BB6D0584651461BF002FF5B46CDE9C8
:102FC000000133BB24B1374B27F040429A4220D155
:102FD000002E07DADDE9002332490020FDF75AFE12
:102FE000CDE90001002FBDDA029B04F1404404F555
:102FF0008014234340F07B84DDE90023104619460A
:10300000FDF766FB02460B46FDF744FECDE90001E5
:10301000A8E7029AFB0F013B0A93134335D0254BD7
:103020009D424BDD03F104739D42234B40F3C0836B
:103030009C4240F35083002E40F3508316A3D3E903
:10304000002310461946FDF7FBFCCDE9000189E796
:10305000009A04F1404303F5801313433FF47EAF1D
:10306000154B9C4240F36483002EC0F23783CDE9B8
:10307000008977E7002EC0F2018458465146CDE919
:1030800000016FE70222029245E75A46584653462E
:103090005146B5E7AFF300809C7500883CE4377E6D
:1030A0000000F07F0000F03F0000E03F00E602007B
:1030B000FFFF3F430000E041FFFFEF3FD44B3B40A9
:1030C000002B40F03D83DDE90001D24B0022FDF7EB
:1030D000B7FCCDE900010C466FF034052315A3F2CF
:1030E000FF335919CC4B0B91C4F3130242F07F54B8
:1030F0009A4244F4401407DDC84B9A4240F30484DA
:1031000001310B91A4F5801400220023CDE908239E
:10311000CDE91023C24B0022CDE906230025DDE9CD
:103120000001DDE9062321468246FDF7D1FAA346D8
:10313000DDE9062306460F4650462146CDE90CAB95
:10314000FDF7C8FA02460B460020B549FDF7A2FD7F
:103150000A460146CDE90E1213463946024630466C
:10316000FDF76EFC0A4683469446CDE900BC4FF05D
:10317000000CCDF800C06410DDE900AB44F0005451
:10318000014604F50023CDE9041200205919044634
:103190000D4602460B4650465946FDF751FC024685
:1031A0000B4630463946FDF793FADDE9062306461D
:1031B0000F4620462946FDF78BFA02460B46DDE90D
:1031C0000C01FDF785FA52465B46FDF739FC0246D5
:1031D0000B4630463946FDF77BFADDE90E23FDF755
:1031E0002FFCDDE90445CDE9060122462B462046A9
:1031F0002946FDF725FC74A3D3E9002304460D46B8
:10320000FDF71EFC72A3D3E90023FDF763FA224603
:103210002B46FDF715FC70A3D3E90023FDF75AFAFE
:1032200022462B46FDF70CFC6DA3D3E90023FDF7E6
:1032300051FA22462B46FDF703FC6BA3D3E900238A
:10324000FDF748FA22462B46FDF7FAFB68A3D3E9BF
:103250000023FDF73FFA224606460F462B4620463E
:103260002946FDF7EDFB02460B4630463946FDF791
:10327000E7FB524604460D465B46DDE90401FDF7D7
:1032800029FADDE90623FDF7DBFB22462B46FDF795
:1032900021FA524606460F465B4650465946FDF710
:1032A000CFFB02460B46CDE90C235E4B0022FDF717
:1032B00011FA32463B46FDF70DFA00240D46224630
:1032C0002B4650465946FDF7BBFB564B82468B4674
:1032D000002220462946FDF7FBF9DDE90C23FDF726
:1032E000F7F902460B4630463946FDF7F1F9DDE9BC
:1032F0000423FDF7A5FB224606460F462B46DDE9D3
:103300000601FDF79DFB02460B4630463946FDF7A8
:10331000E1F906460F4602460B4650465946FDF770
:10332000D9F9002434A3D3E9002320460D46FDF744
:1033300087FB52465B4682468B4620462946FDF770
:10334000C7F902460B4630463946FDF7C1F92CA3B2
:10335000D3E90023FDF774FB2BA3D3E90023064632
:103360000F4620462946FDF76BFB02460B463046CA
:103370003946FDF7AFF9DDE91023FDF7ABF9044657
:103380000B980D46FDF7F2FA224606460F462B46ED
:1033900050465946CDE90445FDF79CF9DDE908237F
:1033A000FDF798F932463B46FDF794F90024324682
:1033B0003B4620460D46FDF78BF9DDE90823FDF776
:1033C00087F952465B462FE0EF4E454A287ECA3FBA
:1033D00065DBC9934A86CD3F01411DA96074D13F89
:1033E0004D268F515555D53FFFAB6FDBB66DDB3F9B
:1033F000033333333333E33F000000E009C7EE3FCC
:10340000FD033ADC09C7EE3FF5015B14E02F3EBE39
:103410000000F07F000040438E98030079B60B0057
:103420000000F03F00000840FDF752F902460B464D
:10343000DDE90401FDF74CF9CDE90401029B0A9A8C
:10344000013B13430CBFD44BD44B0022CDE90223E4
:103450000023CDE900890093DDE900AB40465246E8
:103460005B464946FDF734F922462B46FDF7E8FA5C
:10347000424606460F464B46DDE90401FDF7E0FAF9
:1034800002460B4630463946FDF724F952460646B9
:103490000F465B4620462946FDF7D2FA0B46024608
:1034A00004460D4630463946FDF714F9BC4B9942A7
:1034B000804689468A4640F3168101F13F4303F571
:1034C000E003034340F003829FA3D3E90023304687
:1034D0003946FDF7FFF82246CDE900012B4640466C
:1034E0004946FDF7F5F802460B46DDE90001FDF718
:1034F00037FD002840F0EB81CAF30A534FF48012E5
:10350000A3F2FE3342FA03F35344A649C3F30A522B
:10351000A2F2FF3241FA02FCC3F31301C2F114021A
:1035200041F4801141FA02FE002023EA0C01BAF1B5
:10353000000FCDF810E002460B4602DA7146494210
:10354000049120462946FDF7C3F8049B1B05009310
:1035500002460B4604460D4630463946FDF7BAF89A
:1035600089464FF000087AA3D3E900234046494634
:10357000FDF766FA224682468B462B464046494670
:10358000FDF7A6F802460B4630463946FDF7A0F88F
:1035900071A3D3E90023FDF753FA71A3D3E9002304
:1035A00004460D4640464946FDF74AFA02460B4698
:1035B00020462946FDF78EF806460F4602460B4682
:1035C00050465946FDF786F852465B4604460D467E
:1035D000FDF77EF802460B4630463946FDF778F88F
:1035E000224682468B462B4620462946FDF728FA7E
:1035F0005DA3D3E9002306460F46FDF721FA5CA33D
:10360000D3E90023FDF764F832463B46FDF718FA8C
:1036100059A3D3E90023FDF75DF832463B46FDF799
:103620000FFA57A3D3E90023FDF752F832463B4681
:10363000FDF706FA54A3D3E90023FDF74BF8324611
:103640003B46FDF7FDF902460B4620462946FDF7AD
:103650003FF806460F4602460B4620462946FDF730
:10366000EFF9002280468946304639464FF08043C4
:10367000FDF72EF802460B4640464946FDF70AFB89
:10368000524606460F465B4620462946FDF7D8F9C6
:1036900052465B46FDF71EF802460B463046394659
:1036A000FDF716F822462B46FDF712F802460B46A8
:1036B00000203A49FDF70CF8009D0C462C44B4F567
:1036C000801FC0F241812146DDE90223FDF7B8F9F0
:1036D000CDE9000146E4002EFFF6B0AC0023002443
:1036E000CDE900343EE4DFF8C0C021F0004363457B
:1036F00040F3E5802D4B0B4403430AD122462B4671
:10370000FCF7E6FF32463B46FDF720FC00283FF47D
:10371000F3AE1FA3D3E90023DDE90201FDF790F921
:103720001BA3D3E90023FDF78BF9CDE9000119E4D0
:10373000002ED3DA09F10043CDF80080019311E4A3
:103740000025CBE4AFF30080FE822B654715973C44
:1037500000000000432EE63FEF39FAFE422EE63F1E
:10376000396CA80C615C20BED0A4BE726937663E7D
:10377000F16BD2C541BDBB3E2CDE25AF6A56113F71
:1037800093BDBE166CC1663F3E5555555555C53F58
:1037900059F3F8C21F6EA5010000F0BF0000F03F12
:1037A000FFFF8F40FFFF0F00FFCB904000346F3FC3
:1037B0009C4290DB7E4B9C423FF73DACDDE9000133
:1037C0007B4B0022FCF784FF6BA3D3E90023044664
:1037D0000D46FDF735F96AA3D3E9002382468B46EF
:1037E00020462946FDF72CF9724BCDE90001002255
:1037F00020462946FDF724F902460B4662A1D1E98D
:103800000001FCF765FF22462B46FDF719F9024639
:103810000B4600206849FCF75BFF224606460F4630
:103820002B4620462946FDF70BF902460B4630464B
:103830003946FDF705F956A3D3E90023FDF700F952
:1038400002460B46DDE90001FCF742FF02460B464B
:1038500006460F4650465946FCF73CFF00245246A8
:103860005B4620460D46FCF733FF02460B463046CA
:103870003946FCF72DFFCDE90401DFE54C495A46F6
:1038800053460020FDF706FACDE90001FFF76ABBB9
:103890005A46584653465146FDF7D2F8CDE9000145
:1038A000FFF760BB002B41D1C2F1140245FA02F1CF
:1038B00001FA02F2AA4255D00293FFF732BB3E4A08
:1038C000934256DCDDE900230092049249E632A3DC
:1038D000D3E90023DDE90201FDF7B2F82EA3D3E915
:1038E0000023FDF7ADF8CDE90001FFF73BBB029BDC
:1038F000012B7FF437ABDDE90045224605F100439B
:10390000CDE90023FFF72EBB25A3D3E90023CDE9A2
:10391000082325A3D3E90023CDE91023274B002258
:10392000CDE906234FF48025FFF7F9BB58465146F1
:103930001BF046FA5B46CDE90001002B7FF4A5ABF6
:10394000CDF808B0FFF73EBB049A00F039F8BBE6AB
:1039500001F00101C1F102020292002B3FF4E1AA41
:10396000FFF728BB01F00101C1F102030293FFF749
:10397000D8BA1B15C2E500BF000000604715F73F2D
:1039800044DF5DF80BAE543E555555555555D53F62
:10399000FE822B654715F73F9C7500883CE4377E17
:1039A0000000004003B8E23F06D0CF43EBFD4C3EA1
:1039B0000000F03F0000D03F0000E03F0000F83F73
:1039C000C1F30A5370B58C4604460D4616467BBBC0
:1039D00021F0004C03465CEA030328D0304B002260
:1039E000FDF72EF82F4B9E4204460D461ADBC1F31D
:1039F0000A538C46363B334440F2FE72934220DC3D
:103A0000002B3CDC13F1350F2CDA4CF250339E4284
:103A100017DC05F0004343F0D27141F4B73122487E
:103A200041F01F011AA3D3E90023FDF709F870BD87
:103A300040F2FF729342DED102460B46FCF74AFE8B
:103A400070BD05F0004343F0FC4141F45F1141F4C7
:103A5000105111A3D3E90023144841F03C01FCF7B5
:103A6000EFFF70BD2CF0FF4C36332CF4E00C4CEA29
:103A7000035120460E4B0022FCF7E2FF70BD2CF0F4
:103A8000FF4C2CF4E00C20464CEA035170BD00BF03
:103A900059F3F8C21F6EA5019C7500883CE4377E7F
:103AA00000005043B03CFFFF59F3F8C29C750088FA
:103AB0000000903C000000002DE9F04F016C9DB02B
:103AC00016461F46CDE90267299C824649B1426CE1
:103AD0004A60012393408B6020F0C0FC0023CAF8A9
:103AE0004030B7F10008B4BF012300232360764BB8
:103AF000BCBF28F00048CDF80C8033EA080300F082
:103B0000AC80DDE902340022184621460023CDE9CD
:103B10000801FDF7FDF9054670B1289A01231360ED
:103B20002A9B002B00F0F08268481860431E069321
:103B300006981DB0BDE8F08F1AAB01931BAB009344
:103B40005046DDE9082320F0ABFF5FEA18548346B6
:103B500040F09980DDE91A542C4404F23243202BC2
:103B600040F3B883C3F1400304F2124008FA03F8AB
:103B700026FA00F048EA0000FCF7E8FE0123013CC9
:103B8000A1F1F8710F93524B0022FCF7A1FD48A35D
:103B9000D3E90023FCF754FF47A3D3E90023FCF744
:103BA00099FD064620460F46FCF7E0FE44A3D3E904
:103BB0000023FCF745FF02460B4630463946FCF72A
:103BC00089FD06460F46FDF7B1FC00228146002321
:103BD00030463946FDF7A6F9002840F088822C1BB4
:103BE000631EB9F1160F049300F27582394B03EB93
:103BF000C903D3E90023DDE90801FDF793F90028A3
:103C00006ED000230E93631E002B09F1FF39C0F222
:103C1000688200230A93B9F1000F67DA0A9BCDF896
:103C20002C90A3EB09030A93C9F100030D93269B83
:103C3000092B4FF0000963D8052B40F34983043B5F
:103C400026930024269B023B032B00F24E86DFE8DE
:103C500013F052044F0446042704289A42F20F73CB
:103C6000C8F31308136058EA06031AD12A9B002BE5
:103C700000F05286184B069308332A9A0698136070
:103C80001DB0BDE8F08FDDE90812C2F3130308464A
:103C900043F07F510F95A4F2FF341A9D41F4401177
:103CA00071E72A9B002B40F0EA830C4B06933FE719
:103CB00061436F63A787D23FB3C8608B288AC63F32
:103CC000FB799F501344D33F0000F07F0DE00200CA
:103CD0000000F83FF0D7020068F0020064F0020034
:103CE000631E002BC0F275840E900A90049BCDF8E1
:103CF0002C904B44049300230D93269B092B9BD9B6
:103D00000023CDE9263301244FF0FF330C940793B1
:103D1000079B16930021CAF84410504620F078FB08
:103D20000690002800F0EA85069BCAF84030079B01
:103D30000E2B00F21D81002C00F01A810B99002936
:103D400040F34984B44B01F00F0203EBC2030A466F
:103D5000D205D3E900454FEA211640F10284AF4B6A
:103D6000DDE90801D3E90823FCF794FFCDE9100150
:103D700006F00F064FF0030886B1A84FF30709D5E8
:103D800020462946D7E90023FCF75AFE08F101082E
:103D900004460D46761007F10807EFD1DDE9100162
:103DA00022462B46FCF776FFCDE912010E9B53B15C
:103DB000DDE912459A4B002220462946FDF7B2F86C
:103DC000002840F016854046FCF7D0FDDDE91223BF
:103DD000FCF736FE934B0022FCF77CFC079B064663
:103DE000A1F15077002B00F0A9800B9B1793079B44
:103DF0001093DDE91245069B29462046CDE914675C
:103E00005F1CFDF793FB1099834B03EBC10353E950
:103E1000021200F13006CDE91212FCF7A7FD0246AE
:103E20000B4620462946FCF753FC0D460C99DDE96C
:103E30001223F6B20446002900F088847A49002053
:103E4000FCF728FFDDE91423FCF742FCDDF818C07D
:103E500002460B46CDE912238CF8006022462B4621
:103E6000FDF77EF8002840F0BC84CDF86490CDF8D2
:103E700050B0CDF860A04FF00008DDE912ABB946B4
:103E80002CE0109B08F10108984580F20785674BEC
:103E9000504659460022FCF7D3FD644B002282466F
:103EA0008B4620462946FCF7CBFD0F460646FDF71C
:103EB0003DFB0546FCF75AFD02460B4630463946A7
:103EC000FCF706FC303509F8015B52465B460446B8
:103ED0000D46FDF727F8002840F0D88422462B46EF
:103EE0004F490020FCF7F4FB52465B46FDF71AF8F9
:103EF0000028C6D0179CDDF850B0DDF860A0069A07
:103F00004E46013402E0964200F0A284374616F88D
:103F1000013D392BF7D00133DBB233700294BCE1A1
:103F20004046FCF723FDDDE91223FCF789FD3D4BFC
:103F30000022FCF7CFFB0646A1F150773C4B002254
:103F4000DDE91201FCF7C4FB32463B4604460D4650
:103F5000FDF706F88046002840F08984324607F1D4
:103F6000004320462946FCF7DDFF002840F0288367
:103F70001B9B002BC0F290800B9A0E2A00F38C80C2
:103F8000254B03EBC203D3E90089279B002B1BDAE7
:103F9000079B002B18DC40F01183254B4046002284
:103FA0004946FCF74DFD02460B46DDE90801FCF7EA
:103FB000C3FFDDF81C804446002800F0B382279B35
:103FC000069F6FEA0309B4E2DDE9084542464B4625
:103FD00020462946FCF75EFEFDF7A8FA0746FCF7E7
:103FE000C5FC42464B46FCF72BFD069E0B4602469F
:103FF00029462046FCF76CFB07F1300306F8013B2D
:10400000079B012B00F04E83CDF810A00127CDF8BF
:1040100008B09A462BE000BFF0D70200C8D70200D4
:104020000000F03F00001C400000E03F0000244082
:104030000000144042464B4620462946FCF72AFE23
:10404000FDF774FA8346FCF791FC42464B46FCF7B9
:10405000F7FC01370B46024629462046FCF738FBA1
:104060000BF13003574506F8013B00F01683A64BD1
:104070000022FCF7E5FC0022002304460D46FCF775
:1040800047FF0028D6D00B9BDDF808B0DDF810A064
:1040900001330293374600E10C9A002A3AD0269A5F
:1040A000012A40F37C82079B5E1E0D9BB342C0F247
:1040B00052829E1B079B002BC0F22F83049A1A4446
:1040C00004920A9A15461A440A920121504620F099
:1040D0006DFA044621E001230E93631E002BBFF608
:1040E00098ADC4F101030A930023049393E5484675
:1040F000FCF73CFC32463B46FCF70AFF00287FF405
:104100006EAD09F1FF396AE5804B069306981DB044
:10411000BDE8F08F0D9E0A9D0C9C002D0CDD0499CE
:1041200000290B4608DD0A9AA942A8BF2B46D21ADD
:10413000ED1ACB1A0A9204930D9BCBB10C9B002B6A
:1041400000F04082002E0FDD21463246504620F01E
:1041500009FB5A4601460446504620F055FA594696
:104160008346504620F07AF90D9B9A1B40F0CF828F
:104170000121504620F01AFAB9F1000F804600F3F1
:10418000AE80269B012B40F37F8100260120B9F1F0
:10419000000F40F0AF80049A104410F01F0000F0B0
:1041A0008E80C0F12003042B40F3BA830A9BC0F138
:1041B0001C00034402440A93054404920A9B002B0A
:1041C00005DD59461A46504620F02CFB8346049BD9
:1041D000002B05DD41461A46504620F023FB804661
:1041E0000E9B002B40F02F81079B002B40F3168184
:1041F0000C9B002B40F099800B9B01330293069E91
:10420000079F012507E0594600230A22504620F067
:104210002FF901358346414658461FF01BFEBD422B
:1042200000F1300306F8013BEDDB079A002AC8BF16
:104230001546069AD8BF0125154400220492594616
:1042400001225046079320F0EDFA4146834620F0C4
:1042500061FB002840F3918115F8013C069A013D6D
:1042600004E0AA4200F0948115F8013D392B05F1D4
:104270000107F6D001332B704146504620F0EEF88E
:104280005CB1049B2BB1A34203D01946504620F0E9
:10429000E5F82146504620F0E1F85946504620F016
:1042A000DDF800233B70289B029A1A602A9B002BA2
:1042B0003FF43EAC06981F601DB0BDE8F08F1C2097
:1042C0000A9B03440A93049B03440544049375E743
:1042D0000124B7E4C3F1200306FA03F04CE40146DD
:1042E0004A46504620F03EFA269B012B804640F37A
:1042F0009E810026D8F8103008EB8303186920F05F
:1043000007F9C0F1200046E7000024400CE002005D
:10431000214600230A22504620F0AAF8169B002BC3
:10432000044640F3D6820B970793002D00F30C81CF
:10433000002E40F0D5812646029BDDF818900799A3
:1043400003F0010209F1FF331944269B0C92134339
:104350000A910893414658461FF07CFD2146029081
:10436000584620F0D7FA324607464146504620F0DC
:10437000F1FA029BC26805463033002A40D101465B
:104380005846079320F0C6FA29460490504620F07C
:1043900065F8049A079B1AB90899002900F08682EB
:1043A00009F10101002F0D46C0F2598126980743FB
:1043B0000C98384300F05381002A00F3B2810A9A26
:1043C00089F80030914500F0B281594600230A2255
:1043D000504620F04DF8B442834621464FF000038A
:1043E0004FF00A02504613D020F042F831460446FE
:1043F00000230A22504620F03BF8A9460646A9E7CA
:1044000001465046049320F029F8049B0122C7E797
:1044100020F02EF8A946044606469BE7269B022B71
:104420006FDC0C9B002B80D10B9B4146013358461F
:1044300002931FF00FFD069D00F13003002205F8E6
:10444000013B0492FBE64146584620F063FA0028FF
:10445000BFF6CAAE594600230A22504620F008F89B
:104460000B9B5F1E0C9B8346002B7FF451AF169B6A
:10447000002B40F326820B9A02920793BFE6AF4BC4
:1044800006930333FFF7F9BBDDE9021200297FF43D
:104490007CAEC2F31303002B00F0D480029E75E6BD
:1044A00001230C93279B0B9A134416930133012B82
:1044B0001D460793B8BF01250021172DCAF84410E7
:1044C0007FF72BAC012204235B0003F11400A84208
:1044D000114602F10102F7D9CAF844101DE4012384
:1044E0000C93279B002B43DD169307931D46E3E7B0
:1044F00000230C93D6E700230C93F2E7169B0B974F
:104500000793079B002B7FF45AAD41460522504686
:104510001FF0AEFF01468046584620F0FBF9002808
:104520007FF74DAD0B9B069F03F10109312307F87F
:10453000013B09F101034146504602931FF08EFFF3
:10454000002C7FF4A6AEA8E621462A46504620F06D
:1045500069F90446ECE60D9B0D96F31A9944002682
:10456000A8E5DDE908234FF00208CDE9102303E4B4
:10457000012327930793FFF7CBBB03D1079BDB07EF
:104580003FF56AAE2F4615F8013D302BFAD073E6A1
:10459000029B069A01330293312313706CE60F9A43
:1045A000002A00F0228103F23343049A0D9E1A443C
:1045B00004920A9A15461A440A9286E54FF00008BA
:1045C0004446FCE459460D9A504620F0CBF8834609
:1045D000CEE50E9085E500F033810B9A584B54429E
:1045E00004F00F0203EBC203D3E90023DDE9080165
:1045F000FCF726FA2411CDE9120100F07281514D29
:1046000000234FF00208E60706D5D5E90023FCF7A2
:1046100017FA08F101080123641005F10805F2D129
:10462000002B3FF4C3ABCDE91201FFF7BFBB029BE8
:10463000002B7FF45EAEDDE90212C2F31303002B00
:104640007FF457AE404E1640002E3FF49FAD0A9BBC
:1046500001330A93049B01330493012696E5002A53
:104660000F4612DD594601225046049320F0DAF835
:104670004146834620F04EF90028049B40F3008118
:10468000392B00F0EB80029B313389F800300B9B13
:104690000494013302933446EEE55F46DDF810A042
:1046A000DDF808B00B9B0133029302461C460B4613
:1046B000FCF710F802460B46CDE9042342464B4670
:1046C000FCF74EFC40B9DDE9040142464B46FCF7DD
:1046D0001FFC18B1F90701D5069A17E43746DCE547
:1046E000616850461FF094FE0546002800F00D81D9
:1046F000236902339A0004F10C010C30FCF766FECA
:1047000029460122504620F08DF8064614E6594607
:10471000504620F027F883462AE50A9B079A9D1AFF
:10472000D3E4392B0F4600F099800133ADE70B9AA3
:10473000049401320292344681E500BF64F0020025
:10474000F0D70200C8D702000000F07FDDE91401B5
:10475000FCF776F9069B1E70109B012BCDE9120128
:1047600000F0B580109E069B1E44764B002220462A
:104770002946FCF765F90D460446FCF7D7FE80464E
:10478000FCF7F4F808F1300802460B4620462946AB
:10479000FBF79EFF07F8018BB74204460D46E4D1B4
:1047A000DDE91278684B002238464146FBF792FF5C
:1047B00022462B46FCF7B6FB00285CD13A4643461E
:1047C00061490020FBF784FF22462B46FCF7C8FB1B
:1047D00000283FF4CDAB3746013E17F8013C302BA3
:1047E000F9D0179B0133029357E51A9BC3F13603A7
:1047F000DBE6079B002B3FF493AB169B002B7FF768
:10480000B7AB0B9A1093013A4E4B179220460022F9
:104810002946FCF715F904460D4608F10100CDE9DB
:104820001245FCF7A3F822462B46FCF709F9474B43
:104830000022FBF74FFF0646A1F15077FFF7D9BAE8
:10484000DDE908344FF00208CDE91234FFF7AEBAC3
:1048500001343123FFF761BB09F101050B9B04947F
:10486000013302933923344689F80030F6E44FF0DF
:104870000008444656E6179C069A0134FFF746BBEB
:104880007FF403AFDA077FF500AFF9E6DDE9173A09
:104890000133DDF850B002934F46FEE4DDF864903A
:1048A000DDF850B0DDF860A0FFF762BB392BD3D044
:1048B000002FC8BF029B4F46C8BF313307F8013BEA
:1048C000E5E6269B022B3FF719AE0B97ACE53E467B
:1048D00066E7269B022B3FF711AE169B0B970793BB
:1048E00023E54FF00208FFF761BA0024CAF84440FC
:1048F000214650461FF08CFD0690B0B9144B154868
:1049000000224FF4D57120F07DFC114B11482A464E
:1049100040F2EA2120F076FC0F4B0693FFF708B92E
:104920003FF44CACC0F13C00CAE4069BCAF84030EE
:1049300001224FF0FF33279416930C920793FFF751
:1049400017BB00BF000024400000E03F00001C40F7
:1049500074F0020088F0020068F002004B1E594219
:104960005941014B19707047FE4000202DE9FF416D
:1049700005460B48D1F80C801F460C461646FBF73F
:10498000BFFBBDF82830009380B2CDE901803B46E3
:1049900032462146284626F0CBF904B0BDE8F08126
:1049A0002741002030B58DB022F07EFD03F034FEAB
:1049B000164D01462846FBF717FC0446B8B90123FB
:1049C00004A905A8049304F0ABF8049B7BB19DF8FF
:1049D000153002939DF816301022CDE90053214680
:1049E0000B4B07A81BF000F807A803F0EDFD094DDD
:1049F0000FCD07AC0FC42B6823600023064900933A
:104A0000022207A804F008FC0DB030BDE4F102005A
:104A1000EFF1020010D70200B8D80200F8B518462E
:104A2000BDF81830EBB906281BD1C968541E481EC2
:104A30004D1D10F8017F14F8016FB74218BF012314
:104A4000A842F6D11068086092888A80064A92F8D7
:104A5000641963F3000182F8641900F0F3FC062086
:104A6000F8BD6FF00600FBE75421002038B51C4666
:104A7000BDF81030084611467BB9312C0DD8C568F9
:104A800022462846FCF7A2FC054806490068012397
:104A90002A461AF0F5FE204638BD6FF00600FBE707
:104AA000DC0B0020FBF10200F7B5BDF82040002C24
:104AB0005BD1042B59D1CB6811781D7858784D40C3
:104AC0005178884205F00F0504D029490C78A01EC2
:104AD0004442444198789178884244D024490E78E1
:104AE000B11E4E424E411268224F1A603B7803F0CD
:104AF0000F03032B05D01E4B00221A701E4828F00E
:104B0000BFFA35B11D4A92F8643943F0010382F8C7
:104B10006439C4B17C7841F288335C434FF400457A
:104B200040F2E73000214FF47A720023C4FB050104
:104B3000FCF714FC02460B4600200021CDE90001E1
:104B40000D4819F06DFE4EB100220023CDE900237F
:104B50000B484FF40042002319F062FE00F06CFC99
:104B6000042003B0F0BD0026BDE76FF00600F8E7B3
:104B70005941002002130020381300205421002046
:104B8000701300207FB50B4B1B787BB100211822DE
:104B900068461AF0FDFD084B0193084B02936946E5
:104BA00002230020ADF80C3006F0DCFC07B05DF805
:104BB00004FB00BFFE40002054D90200D840002072
:104BC000014803F0AFBC00BFA54900002DE9F74341
:104BD000054608461446FBF7C9FE4B4B0022FCF77E
:104BE00059F8FCF7E7F906462046FBF7BFFE464BAF
:104BF0000022FCF74FF8FCF7DDF904462846FBF7E6
:104C0000B5FE424B0022FCF745F8FCF7D3F94049CA
:104C1000FBF7A6FC0546FCF72BFB0746FCF7D4FA8E
:104C200001462846FCF71AFA314681464FF07E507D
:104C3000FCF714FA2146FBF793FC4946054630463B
:104C4000FBF78EFC01464FF07E50FCF707FA214639
:104C5000FBF786FC494680464FF07E50FCF7FEF994
:104C60003146FBF77DFC01464FF07E50FCF7F6F92C
:104C70002146FBF775FC0646062097FBF0F300FB88
:104C80001377052F3BD8DFE807F00503292E3337CC
:104C9000264644461F49204F2046FBF761FCFCF79F
:104CA000E7FA1C4917F800803046FBF759FCFCF77F
:104CB000DFFA18493C5C2846FBF752FCFCF7D8FAAF
:104CC00000236FF307033A5C68F30F2364F3174381
:104CD00062F31F63184603B0BDE8F08323462C46F9
:104CE00035461E46D6E7234646462C461D46D1E7A6
:104CF000234634462E46F9E72E464546CAE70025A8
:104D00002E462C46C6E700BF000059400080764082
:104D10000000C04000007F43FEF1020010B50B4CC4
:104D20004FF0FF324FF0FF33204618F073FE084A71
:104D3000D2E9003113F5FA7341F10001C2E9003103
:104D40002046BDE8104018F03FBE00BF64140020AC
:104D500000000020F7B50F4E04460D46306883680A
:104D600001A99B6898473068019E21F007FD0A4918
:104D70000A4F02460023A6FB0101FCF7EFFA064AA0
:104D80000023FCF7EBFA241A65EB0105C7E900459F
:104D900003B0F0BD3821002040420F000000002089
:104DA00013B50E4C2068836801A99B68984720685A
:104DB000019C21F0E3FC0A4902460023A4FB010107
:104DC000FCF7CCFA064A0023FCF7C8FA054AD2E9F8
:104DD0000032C01842EB010102B010BD38210020A2
:104DE00040420F000000002070B51649164C00200C
:104DF0000B784A788D7803F07F06DB0943EA460397
:104E0000D608D20002F0380242EA551243EA0623DD
:104E100043EA42332A0402F4C01213432D02CA7833
:104E200005F48075154354F8202043EA455302F0F9
:104E30004042134344F8203001300A2801F10401B4
:104E4000D6D170BDFF40002010210020174B4288B2
:104E50009978174BC1F3C1010229C2F3481211D04E
:104E600003291DD001291ED01248017821F00F011D
:104E70000A43027093F8642942F0010283F864291E
:104E800000F0DABA0C498A704288C2F34032CA7024
:104E900093F8642942F0010283F8642900F0D2BA41
:104EA00005490A71F4E704494A71F1E7102100202D
:104EB0005421002002130020061300202DE9F341A5
:104EC00014463A4E3A484FF0FF324FF0FF3318F095
:104ED000A1FD306821F052FC3649DFF8DC80002764
:104EE00002463B46A4FB0101FCF738FA314A002395
:104EF000FCF734FAD8E90023801843EB0103CDE92D
:104F000000032B482D4C18F05FFD68461AF004F89A
:104F100005462B4B2968306803FB014421F02EFC29
:104F2000244A0023A4FB0001FCF718FA4FF0FF32DB
:104F3000824277EB0101034638BF1346214A3068AD
:104F4000536083684268527A1AB1DB681D4A0021B7
:104F50009847D8E90023012A73F1000322DB1A4E97
:104F60000024374617F82430DA0716D5AA695B08FB
:104F70001341DB0711D507EB8403AA685B7803F0C4
:104F80001F03934209D157F824306A68C3F34533AD
:104F9000934202D13046FFF759FF01340A2C06F143
:104FA0000406DFD102B0BDE8F08100BF3821002047
:104FB0006414002040420F0000000020008793038B
:104FC000C0BDF0FF00210020102100207FB5FFF7B9
:104FD0000BFF2748274D18F0E5F9286083681B6808
:104FE0009847286821F0CAFB2349244A0023A0FBE4
:104FF0000101FCF7B3F900290CBF03464FF0FF3362
:1050000000931F4B01930023CDE902332868836886
:10501000009942681268914202D85B6969469847D4
:105020001848194C19F078FF184A01682B6802FBE0
:105030000144184621F0A2FB0023104A144EA4FBA1
:105040000001FCF78BF900290CBF03464FF0FF333A
:10505000736000210F4B28683360C6E90211836832
:105060004268527A12B1DB683246984704B070BD8C
:10507000FEF20200382100200065CD1D40420F00E5
:105080001D4D00000000002000879303C0BDF0FF0D
:1050900000210020BD4E00002DE9F347354A13786A
:1050A000002B5AD0013BDBB2012B137055D1324B90
:1050B000DFF8C8905878FBF759FC314B0022FBF71A
:1050C000BFFC304B002206460F46FBF7E3FD4FF0D6
:1050D000060A04460D464FF0000822462B4630468D
:1050E0003946FBF7D7FD22462B46FBF7F3FA42463B
:1050F0004B46FBF7A5FC0AF1FF3A1AF0FF0A0446FB
:105100000D46EAD11D4B0022FBF7E4FA1E4B0022AC
:10511000FBF796FC0022002304460D46FBF720FF18
:1051200028B320462946FCF731F9C90341EA50412A
:1051300040F2E733C003C0184FF47A724FF0000317
:1051400041F10001FCF70AF902460B46002000215C
:10515000CDE900010D4819F063FB0D4A92F864395E
:1051600043F0010382F8643902B0BDE8F08750468D
:105170005146DAE759410020021300200000E03FC9
:1051800000001E400000084000408F4038130020FF
:10519000542100202DE9F84F274CDFF8A08094F827
:1051A0006439DA0703D40A2021F0EFFAF7E7DFF8D1
:1051B0009090244D99F8002002F00F026FF3000345
:1051C000012A84F8643998F8003000D08BB329792B
:1051D0006A796888642928BF6421012B08BF920876
:1051E000FFF7F4FC606060682D8821F0BBFA06468A
:1051F00054F8250021F0B6FA8642D4D00E4FDFF8DD
:1052000048A0002607F1040BB3B2AB42CBD26368CF
:1052100047F8043F206883682A461B685946984728
:1052200099F80330013B01363AF8130021F0ADFA4A
:10523000EAE7064A1360D6E75421002059410020CE
:105240000213002006130020BCF1020058210020A8
:1052500030B5284C237803F00F03032B85B02FD1F2
:10526000254B18680569836803A95B68984728B9C6
:105270002B680399594011F0100123D01F4B1A8855
:10528000A37803EB83039A421ADC1D4827F0F8FE4B
:105290001C4B4FF6FF721A801B4B02221A701B4ADE
:1052A00092F8643943F0010382F864390022002344
:1052B0001748CDE900234FF42032002319F0B0FA4B
:1052C00005B030BD647841F288335C434FF400454B
:1052D00040F2E7304FF47A720023C4FB0501FCF77B
:1052E0003DF802460B4600200021CDE900010448AC
:1052F000E4E700BF0213002044210020D840002032
:10530000381300208C110020594100205421002026
:105310007013002030B52C4C2C4D204689B040F83D
:10532000045B4FF4166200211AF032FAAB68284A87
:105330001B681288211D2846984794F8643943F069
:10534000010384F864392348234C18F02BF82060BB
:1053500002698168136823F0100313600B684FF42F
:105360009072042198472068836804219D694FF456
:10537000A0324FF4C023A8471849194B20684B604E
:1053800010238B608368DB690BB1012298471548B5
:1053900018F008F8144A1060836814491B6898478D
:1053A00000220023CDE9062300230522CDE90323B3
:1053B000CDE9013300930E490E4B0F484FF4806244
:1053C00018F076F909B030BD54210020C4D4020091
:1053D0000613002004F3020044210020482100208D
:1053E000515200000BF302003C210020B4F10200F6
:1053F000807E00209551000000160020024A0348DC
:105400000423012100F010BF02130020BC2A002059
:10541000024A03480623022100F006BF06130020BB
:10542000BC2A0020024A03482823032100F0FCBEC6
:10543000FF400020BC2A0020014818F031BC00BF0A
:10544000C0050020014818F02BBC00BFE00500207B
:10545000014818F025BC00BFD00500207FB5144CD2
:105460004FF4F4232360134E304617F09BFF21685E
:1054700001AA27F034F90625029BA3813146204674
:10548000E58100F073FD0C4A04230121204621F040
:10549000E5FF2B46094A0221204621F0DFFF084A9A
:1054A00028230321204621F0D9FF04B070BD00BF9E
:1054B000BC2A002011F30200021300200613002072
:1054C000FF40002030B50A4C0A44914200D130BD63
:1054D00011F8013B58400309E35C83EA0013DDB295
:1054E000C3F30313E05C80EA0510C0B2EDE700BF30
:1054F00024F302000B6801330B60014B1B68184753
:10550000F0050020014B1860704700BFF005002037
:1055100007B50B46002102460191034801A900F09E
:1055200059F903B05DF804FBF554000030B585B0BF
:10553000CDE901010446002501A90548039500F0C5
:1055400049F9DDE902309842B8BF255405B030BDB5
:10555000F16802002DE9F84FB0F8189019F008082A
:10556000044693460DD001290CBF49F0100949F0BB
:105570002009A0F818908BF31188BFF36F8FBDE856
:10558000F88F09F00709022907D1204621F0DDF93B
:105590000028F0D00128238B4ED16769218B002F82
:1055A00015DA256821F00701C4E9008841F00101FE
:1055B00021830026218B01F0070ACA4502D0A36887
:1055C000002B5AD10DB9002E71D0002356E001F006
:1055D00007035A1F012A1ED821F00701062B256850
:1055E00089B2C4E900880AD13DB1638B2A461268AA
:1055F00001339BB2002AFAD1638341F00201218377
:10560000204621F0A2F906460028D3D0238B43F090
:1056100020032383CDE7042B0CD121F0070189B2AD
:105620002183204621F091F905460028C1D041F0A0
:10563000200121830025BCE7032809D1226923F03A
:105640000703166843F00603238300252F46B1E7BE
:10565000042806D1226923F00703566843F00403A7
:10566000F2E7052806D1226923F00703966843F084
:105670000503E9E700252E46E8E7012341F008018C
:1056800021838BF31188BFF36F8FFBB985BB16B1F4
:105690001F492046B0474FF02003EFF3118B83F3EF
:1056A0001288BFF36F8F238B23F008032383238B90
:1056B000DA0625D523F0100323830121B4F81890CE
:1056C00009F0070900297FF45EAF54E7A1680029BB
:1056D000DCD0D1F80090D1F804B03B4652462046C9
:1056E000D847B9F1000FD1D04946D9F80090F2E778
:1056F00029463B46524620462D6821F042F9C5E72F
:1057000013F020011EBF23F0200323830221D5E7DD
:10571000AF690200F0B5084E026803460A27002070
:10572000114601320C78A55D6D0701D41960F0BDFA
:1057300007FB00403038F3E729EE02002DE9F84F6F
:1057400015469A46D378224A13F802B06F2B80464A
:105750000F460BF0030B29D024D8582B14BF0A2670
:105760001026DDF828903246002340463946FBF7E4
:10577000F5FD092AD4B21ED83034B045E4B277F131
:10578000000309F8014D01D3D14511D82B789B06B0
:1057900005D5082E15D1AB7843F00803AB70484609
:1057A000BDE8F88F03F0F703702BD7E70826D8E79A
:1057B00080460F46D7E7BBF1010F0CBF3734573493
:1057C000DBE7102EEBD1AB7843F01003E6E700BF28
:1057D00029EE02002DE9F04F824693B08B469146A8
:1057E0001C46002599F8000008B928463DE309F158
:1057F00001032528029306D05946D0470028C0F25D
:1058000034830135F5E1182200210CA819F0C0FFFE
:1058100099F80130252B5AD009F10102164612F8E9
:10582000013B2B2B00F08B8079D8202B00F08C8053
:10583000232B00F08E809DF8383003F04402442A78
:1058400003D16FF386138DF838309DF83830059604
:1058500043F080038DF8383033782A2B7ED19DF8C1
:10586000393043F001038DF83930731C05931A78F1
:105870002E2A9DF839200CBF0121002161F341023D
:105880008DF839200BD15A1C05925A782A2A7BD1DF
:105890009DF8392042F004028DF839200233194670
:1058A00011F8010B6C2800F0B6807DD8682800F054
:1058B00084806A2800F0B9804C2800F0BD809DF8F3
:1058C00039206FF3C6028DF83920194680E009F1BE
:1058D000020202928DF83B309DF83930D90740F131
:1058E0004A8154F8048BB8F1000F07DA9DF838208C
:1058F00042F004028DF83820C8F100085A0740F140
:10590000438154F8047B002F80F242819DF83930A6
:105910006FF341038DF839304FF0FF3738E12D2B0D
:1059200006D0302B87D19DF8383043F0400303E098
:105930009DF8383043F004038DF838306EE79DF859
:10594000383043F00803F7E79DF8383043F0100390
:10595000F2E79DF8383043F02003EDE705A8FFF7A4
:10596000D9FE059BB34281D09DF838100F90C1F34A
:10597000400242EAD072520062F07F0201F07D01E3
:105980000A438DF8382071E705A8FFF7C3FE9DF89C
:1059900038301090C3F3400242EAD07060F3410304
:1059A0008DF83830059B7AE774289DF8392040D06F
:1059B0007A2884D11346062228E05A78682A9DF86E
:1059C000392021D1012161F3C6028DF83920991CBB
:1059D0000B4613F8012B0293782A9DF839308DF885
:1059E0003B2000F2C080572A33D8412A03D0453AE1
:1059F000022A00F2B8809DF83A30042262F30203D2
:105A00008DF83A30012385E01346022262F3C60383
:105A10008DF83930DCE75A786C2A9DF8392001D1AD
:105A20000421D0E713460322F0E79DF83930052220
:105A3000ECE713460722E9E7BDF8383023F4F043DA
:105A400023F0020343F4804343F00203ADF83830FF
:105A5000BEE7A2F15801202900F2858001A050F88C
:105A600021F000BF295B0000675B0000675B00005E
:105A7000675B0000675B0000675B0000675B00001E
:105A8000675B0000675B0000F7590000675B000080
:105A9000295B0000E95A0000F7590000F75900009F
:105AA000F7590000675B0000E95A0000675B0000DF
:105AB000675B0000675B0000675B0000315B000014
:105AC000295B00004D5B0000675B0000675B000026
:105AD0004D5B0000675B0000295B0000675B000016
